{
  "contractName": "Voting",
  "abi": [
    {
      "constant": true,
      "inputs": [
        {
          "name": "",
          "type": "address"
        },
        {
          "name": "",
          "type": "uint256"
        }
      ],
      "name": "joinedByAddress",
      "outputs": [
        {
          "name": "",
          "type": "bool"
        }
      ],
      "payable": false,
      "stateMutability": "view",
      "type": "function"
    },
    {
      "constant": true,
      "inputs": [
        {
          "name": "",
          "type": "address"
        }
      ],
      "name": "isTarget",
      "outputs": [
        {
          "name": "",
          "type": "bool"
        }
      ],
      "payable": false,
      "stateMutability": "view",
      "type": "function"
    },
    {
      "constant": true,
      "inputs": [
        {
          "name": "",
          "type": "uint256"
        }
      ],
      "name": "polls",
      "outputs": [
        {
          "name": "target",
          "type": "address"
        },
        {
          "name": "ban",
          "type": "bool"
        },
        {
          "name": "startTime",
          "type": "uint256"
        },
        {
          "name": "endTime",
          "type": "uint256"
        },
        {
          "name": "result",
          "type": "bool"
        },
        {
          "name": "ended",
          "type": "bool"
        }
      ],
      "payable": false,
      "stateMutability": "view",
      "type": "function"
    },
    {
      "constant": true,
      "inputs": [
        {
          "name": "",
          "type": "address"
        },
        {
          "name": "",
          "type": "uint256"
        }
      ],
      "name": "votesByAddress",
      "outputs": [
        {
          "name": "",
          "type": "bool"
        }
      ],
      "payable": false,
      "stateMutability": "view",
      "type": "function"
    },
    {
      "constant": true,
      "inputs": [],
      "name": "blacklistContract",
      "outputs": [
        {
          "name": "",
          "type": "address"
        }
      ],
      "payable": false,
      "stateMutability": "view",
      "type": "function"
    },
    {
      "inputs": [
        {
          "name": "_blacklistAddress",
          "type": "address"
        }
      ],
      "payable": false,
      "stateMutability": "nonpayable",
      "type": "constructor"
    },
    {
      "anonymous": false,
      "inputs": [
        {
          "indexed": false,
          "name": "_from",
          "type": "address"
        },
        {
          "indexed": false,
          "name": "_target",
          "type": "address"
        }
      ],
      "name": "PollCreatedSuccess",
      "type": "event"
    },
    {
      "anonymous": false,
      "inputs": [
        {
          "indexed": false,
          "name": "_from",
          "type": "address"
        },
        {
          "indexed": false,
          "name": "_id",
          "type": "uint256"
        }
      ],
      "name": "VoteSuccess",
      "type": "event"
    },
    {
      "constant": false,
      "inputs": [
        {
          "name": "_target",
          "type": "address"
        },
        {
          "name": "_ban",
          "type": "bool"
        },
        {
          "name": "_startTime",
          "type": "uint256"
        },
        {
          "name": "_endTime",
          "type": "uint256"
        }
      ],
      "name": "pollCreate",
      "outputs": [],
      "payable": false,
      "stateMutability": "nonpayable",
      "type": "function"
    },
    {
      "constant": false,
      "inputs": [
        {
          "name": "id",
          "type": "uint256"
        },
        {
          "name": "agree",
          "type": "bool"
        }
      ],
      "name": "vote",
      "outputs": [],
      "payable": false,
      "stateMutability": "nonpayable",
      "type": "function"
    },
    {
      "constant": false,
      "inputs": [
        {
          "name": "id",
          "type": "uint256"
        }
      ],
      "name": "tryToFinalize",
      "outputs": [
        {
          "name": "",
          "type": "bool"
        }
      ],
      "payable": false,
      "stateMutability": "nonpayable",
      "type": "function"
    },
    {
      "constant": false,
      "inputs": [
        {
          "name": "_address",
          "type": "address"
        }
      ],
      "name": "testAddWithCall",
      "outputs": [],
      "payable": false,
      "stateMutability": "nonpayable",
      "type": "function"
    },
    {
      "constant": false,
      "inputs": [
        {
          "name": "_address",
          "type": "address"
        }
      ],
      "name": "testRemoveWithCall",
      "outputs": [],
      "payable": false,
      "stateMutability": "nonpayable",
      "type": "function"
    }
  ],
  "bytecode": "0x608060405234801561001057600080fd5b50604051602080611e4483398101806040528101908080519060200190929190505050806000806101000a81548173ffffffffffffffffffffffffffffffffffffffff021916908373ffffffffffffffffffffffffffffffffffffffff16021790555050611dc1806100836000396000f3006080604052600436106100a4576000357c0100000000000000000000000000000000000000000000000000000000900463ffffffff1680631403bba9146100a957806328b1f2471461010c578063312072801461017157806384a19234146101b4578063aa642274146101f7578063ac2f007414610252578063c9d27afe146102ee578063db7c01e214610327578063f3e1a4df1461038c578063fdb7f3e0146103e3575b600080fd5b3480156100b557600080fd5b5061010a600480360381019080803573ffffffffffffffffffffffffffffffffffffffff1690602001909291908035151590602001909291908035906020019092919080359060200190929190505050610428565b005b34801561011857600080fd5b50610157600480360381019080803573ffffffffffffffffffffffffffffffffffffffff169060200190929190803590602001909291905050506108bd565b604051808215151515815260200191505060405180910390f35b34801561017d57600080fd5b506101b2600480360381019080803573ffffffffffffffffffffffffffffffffffffffff1690602001909291905050506108ec565b005b3480156101c057600080fd5b506101f5600480360381019080803573ffffffffffffffffffffffffffffffffffffffff1690602001909291905050506109e7565b005b34801561020357600080fd5b50610238600480360381019080803573ffffffffffffffffffffffffffffffffffffffff169060200190929190505050610ae2565b604051808215151515815260200191505060405180910390f35b34801561025e57600080fd5b5061027d60048036038101908080359060200190929190505050610b02565b604051808773ffffffffffffffffffffffffffffffffffffffff1673ffffffffffffffffffffffffffffffffffffffff168152602001861515151581526020018581526020018481526020018315151515815260200182151515158152602001965050505050505060405180910390f35b3480156102fa57600080fd5b5061032560048036038101908080359060200190929190803515159060200190929190505050610b94565b005b34801561033357600080fd5b50610372600480360381019080803573ffffffffffffffffffffffffffffffffffffffff16906020019092919080359060200190929190505050611203565b604051808215151515815260200191505060405180910390f35b34801561039857600080fd5b506103a1611232565b604051808273ffffffffffffffffffffffffffffffffffffffff1673ffffffffffffffffffffffffffffffffffffffff16815260200191505060405180910390f35b3480156103ef57600080fd5b5061040e60048036038101908080359060200190929190505050611257565b604051808215151515815260200191505060405180910390f35b610430611c6e565b600160008673ffffffffffffffffffffffffffffffffffffffff1673ffffffffffffffffffffffffffffffffffffffff16815260200190815260200160002060009054906101000a900460ff161515156104f2576040517f08c379a00000000000000000000000000000000000000000000000000000000081526004018080602001828103825260138152602001807f697320746172676574206f66206120706f6c6c0000000000000000000000000081525060200191505060405180910390fd5b8315156000809054906101000a900473ffffffffffffffffffffffffffffffffffffffff1673ffffffffffffffffffffffffffffffffffffffff166286786e876040518263ffffffff167c0100000000000000000000000000000000000000000000000000000000028152600401808273ffffffffffffffffffffffffffffffffffffffff1673ffffffffffffffffffffffffffffffffffffffff168152602001915050602060405180830381600087803b1580156105b057600080fd5b505af11580156105c4573d6000803e3d6000fd5b505050506040513d60208110156105da57600080fd5b8101908080519060200190929190505050151514151515610663576040517f08c379a000000000000000000000000000000000000000000000000000000000815260040180806020018281038252601a8152602001807f616c72656164792062616e6e6564206f7220756e62616e6e656400000000000081525060200191505060405180910390fd5b60018060008773ffffffffffffffffffffffffffffffffffffffff1673ffffffffffffffffffffffffffffffffffffffff16815260200190815260200160002060006101000a81548160ff02191690831515021790555084816000019073ffffffffffffffffffffffffffffffffffffffff16908173ffffffffffffffffffffffffffffffffffffffff16815250508381602001901515908115158152505082816040018181525050818160600181815250506004819080600181540180825580915050906001820390600052602060002090600502016000909192909190915060008201518160000160006101000a81548173ffffffffffffffffffffffffffffffffffffffff021916908373ffffffffffffffffffffffffffffffffffffffff16021790555060208201518160000160146101000a81548160ff021916908315150217905550604082015181600101556060820151816002015560808201518160030190805190602001906107db929190611cc8565b5060a08201518160040160006101000a81548160ff02191690831515021790555060c08201518160040160016101000a81548160ff0219169083151502179055505050507fc6fcad5acef6cf9f9722432ecb0ff3763242a7b82f8627a5e4df9835f4fefe3c3386604051808373ffffffffffffffffffffffffffffffffffffffff1673ffffffffffffffffffffffffffffffffffffffff1681526020018273ffffffffffffffffffffffffffffffffffffffff1673ffffffffffffffffffffffffffffffffffffffff1681526020019250505060405180910390a15050505050565b60036020528160005260406000206020528060005260406000206000915091509054906101000a900460ff1681565b6000809054906101000a900473ffffffffffffffffffffffffffffffffffffffff1673ffffffffffffffffffffffffffffffffffffffff166335e82f3a826040518263ffffffff167c0100000000000000000000000000000000000000000000000000000000028152600401808273ffffffffffffffffffffffffffffffffffffffff1673ffffffffffffffffffffffffffffffffffffffff168152602001915050602060405180830381600087803b1580156109a857600080fd5b505af11580156109bc573d6000803e3d6000fd5b505050506040513d60208110156109d257600080fd5b81019080805190602001909291905050505050565b6000809054906101000a900473ffffffffffffffffffffffffffffffffffffffff1673ffffffffffffffffffffffffffffffffffffffff1663f2c816ae826040518263ffffffff167c0100000000000000000000000000000000000000000000000000000000028152600401808273ffffffffffffffffffffffffffffffffffffffff1673ffffffffffffffffffffffffffffffffffffffff168152602001915050602060405180830381600087803b158015610aa357600080fd5b505af1158015610ab7573d6000803e3d6000fd5b505050506040513d6020811015610acd57600080fd5b81019080805190602001909291905050505050565b60016020528060005260406000206000915054906101000a900460ff1681565b600481815481101515610b1157fe5b90600052602060002090600502016000915090508060000160009054906101000a900473ffffffffffffffffffffffffffffffffffffffff16908060000160149054906101000a900460ff16908060010154908060020154908060040160009054906101000a900460ff16908060040160019054906101000a900460ff16905086565b610b9c611c6e565b6000809054906101000a900473ffffffffffffffffffffffffffffffffffffffff1673ffffffffffffffffffffffffffffffffffffffff166286786e336040518263ffffffff167c0100000000000000000000000000000000000000000000000000000000028152600401808273ffffffffffffffffffffffffffffffffffffffff1673ffffffffffffffffffffffffffffffffffffffff168152602001915050602060405180830381600087803b158015610c5757600080fd5b505af1158015610c6b573d6000803e3d6000fd5b505050506040513d6020811015610c8157600080fd5b8101908080519060200190929190505050158015610ce95750600160003373ffffffffffffffffffffffffffffffffffffffff1673ffffffffffffffffffffffffffffffffffffffff16815260200190815260200160002060009054906101000a900460ff16155b1515610d5d576040517f08c379a000000000000000000000000000000000000000000000000000000000815260040180806020018281038252601d8152602001807f62616e6e6564206f7220697320746172676574206f66206120706f6c6c00000081525060200191505060405180910390fd5b60048054905083101515610dd9576040517f08c379a000000000000000000000000000000000000000000000000000000000815260040180806020018281038252600c8152602001807f6964206e6f74206578697374000000000000000000000000000000000000000081525060200191505060405180910390fd5b600483815481101515610de857fe5b906000526020600020906005020160e060405190810160405290816000820160009054906101000a900473ffffffffffffffffffffffffffffffffffffffff1673ffffffffffffffffffffffffffffffffffffffff1673ffffffffffffffffffffffffffffffffffffffff1681526020016000820160149054906101000a900460ff16151515158152602001600182015481526020016002820154815260200160038201805480602002602001604051908101604052809291908181526020018280548015610f0c57602002820191906000526020600020905b8160009054906101000a900473ffffffffffffffffffffffffffffffffffffffff1673ffffffffffffffffffffffffffffffffffffffff1681526020019060010190808311610ec2575b505050505081526020016004820160009054906101000a900460ff161515151581526020016004820160019054906101000a900460ff161515151581525050905080604001514210158015610f65575080606001514211155b1515610fd9576040517f08c379a00000000000000000000000000000000000000000000000000000000081526004018080602001828103825260178152602001807f206e6f7420647572696e6720766f74696e672074696d6500000000000000000081525060200191505060405180910390fd5b600360003373ffffffffffffffffffffffffffffffffffffffff1673ffffffffffffffffffffffffffffffffffffffff168152602001908152602001600020600084815260200190815260200160002060009054906101000a900460ff16151561112b576001600360003373ffffffffffffffffffffffffffffffffffffffff1673ffffffffffffffffffffffffffffffffffffffff168152602001908152602001600020600085815260200190815260200160002060006101000a81548160ff0219169083151502179055506004838154811015156110b557fe5b90600052602060002090600502016003013390806001815401808255809150509060018203906000526020600020016000909192909190916101000a81548173ffffffffffffffffffffffffffffffffffffffff021916908373ffffffffffffffffffffffffffffffffffffffff160217905550505b81600260003373ffffffffffffffffffffffffffffffffffffffff1673ffffffffffffffffffffffffffffffffffffffff168152602001908152602001600020600085815260200190815260200160002060006101000a81548160ff0219169083151502179055507f3a232d0b41363ece538fec6c001a49e4d237d8806c40d2899dc7590e1b2dfd1d3384604051808373ffffffffffffffffffffffffffffffffffffffff1673ffffffffffffffffffffffffffffffffffffffff1681526020018281526020019250505060405180910390a1505050565b60026020528160005260406000206020528060005260406000206000915091509054906101000a900460ff1681565b6000809054906101000a900473ffffffffffffffffffffffffffffffffffffffff1681565b6000611261611c6e565b600480549050831015156112dd576040517f08c379a000000000000000000000000000000000000000000000000000000000815260040180806020018281038252600c8152602001807f6964206e6f74206578697374000000000000000000000000000000000000000081525060200191505060405180910390fd5b6004838154811015156112ec57fe5b906000526020600020906005020160e060405190810160405290816000820160009054906101000a900473ffffffffffffffffffffffffffffffffffffffff1673ffffffffffffffffffffffffffffffffffffffff1673ffffffffffffffffffffffffffffffffffffffff1681526020016000820160149054906101000a900460ff1615151515815260200160018201548152602001600282015481526020016003820180548060200260200160405190810160405280929190818152602001828054801561141057602002820191906000526020600020905b8160009054906101000a900473ffffffffffffffffffffffffffffffffffffffff1673ffffffffffffffffffffffffffffffffffffffff16815260200190600101908083116113c6575b505050505081526020016004820160009054906101000a900460ff161515151581526020016004820160019054906101000a900460ff1615151515815250509050806060015142108061146457508060c001515b156114725760009150611519565b61147b8361151f565b8160a00190151590811515815250508060800160608152508060a00151156114a7576114a683611841565b5b60018160c0019015159081151581525050600060016000836000015173ffffffffffffffffffffffffffffffffffffffff1673ffffffffffffffffffffffffffffffffffffffff16815260200190815260200160002060006101000a81548160ff021916908315150217905550600191505b50919050565b6000611529611c6e565b6000806000806000600480549050881015156115ad576040517f08c379a000000000000000000000000000000000000000000000000000000000815260040180806020018281038252600c8152602001807f6964206e6f74206578697374000000000000000000000000000000000000000081525060200191505060405180910390fd5b6004888154811015156115bc57fe5b906000526020600020906005020160e060405190810160405290816000820160009054906101000a900473ffffffffffffffffffffffffffffffffffffffff1673ffffffffffffffffffffffffffffffffffffffff1673ffffffffffffffffffffffffffffffffffffffff1681526020016000820160149054906101000a900460ff161515151581526020016001820154815260200160028201548152602001600382018054806020026020016040519081016040528092919081815260200182805480156116e057602002820191906000526020600020905b8160009054906101000a900473ffffffffffffffffffffffffffffffffffffffff1673ffffffffffffffffffffffffffffffffffffffff1681526020019060010190808311611696575b505050505081526020016004820160009054906101000a900460ff161515151581526020016004820160019054906101000a900460ff16151515158152505095506000945060009350600092505b85608001515183101561182a5785608001518381518110151561174d57fe5b906020019060200201519150600260008373ffffffffffffffffffffffffffffffffffffffff1673ffffffffffffffffffffffffffffffffffffffff168152602001908152602001600020600089815260200190815260200160002060009054906101000a900460ff16905080156117f0576117e98273ffffffffffffffffffffffffffffffffffffffff163186611c4590919063ffffffff16565b945061181d565b61181a8273ffffffffffffffffffffffffffffffffffffffff163185611c4590919063ffffffff16565b93505b828060010193505061172e565b6118348585611c61565b9650505050505050919050565b611849611c6e565b600480549050821015156118c5576040517f08c379a000000000000000000000000000000000000000000000000000000000815260040180806020018281038252600c8152602001807f6964206e6f74206578697374000000000000000000000000000000000000000081525060200191505060405180910390fd5b6004828154811015156118d457fe5b906000526020600020906005020160e060405190810160405290816000820160009054906101000a900473ffffffffffffffffffffffffffffffffffffffff1673ffffffffffffffffffffffffffffffffffffffff1673ffffffffffffffffffffffffffffffffffffffff1681526020016000820160149054906101000a900460ff161515151581526020016001820154815260200160028201548152602001600382018054806020026020016040519081016040528092919081815260200182805480156119f857602002820191906000526020600020905b8160009054906101000a900473ffffffffffffffffffffffffffffffffffffffff1673ffffffffffffffffffffffffffffffffffffffff16815260200190600101908083116119ae575b505050505081526020016004820160009054906101000a900460ff161515151581526020016004820160019054906101000a900460ff1615151515815250509050806020015115611b44576000809054906101000a900473ffffffffffffffffffffffffffffffffffffffff1673ffffffffffffffffffffffffffffffffffffffff1663f2c816ae82600001516040518263ffffffff167c0100000000000000000000000000000000000000000000000000000000028152600401808273ffffffffffffffffffffffffffffffffffffffff1673ffffffffffffffffffffffffffffffffffffffff168152602001915050602060405180830381600087803b158015611b0357600080fd5b505af1158015611b17573d6000803e3d6000fd5b505050506040513d6020811015611b2d57600080fd5b810190808051906020019092919050505050611c41565b6000809054906101000a900473ffffffffffffffffffffffffffffffffffffffff1673ffffffffffffffffffffffffffffffffffffffff166335e82f3a82600001516040518263ffffffff167c0100000000000000000000000000000000000000000000000000000000028152600401808273ffffffffffffffffffffffffffffffffffffffff1673ffffffffffffffffffffffffffffffffffffffff168152602001915050602060405180830381600087803b158015611c0457600080fd5b505af1158015611c18573d6000803e3d6000fd5b505050506040513d6020811015611c2e57600080fd5b8101908080519060200190929190505050505b5050565b60008183019050828110151515611c5857fe5b80905092915050565b6000818311905092915050565b60e060405190810160405280600073ffffffffffffffffffffffffffffffffffffffff1681526020016000151581526020016000815260200160008152602001606081526020016000151581526020016000151581525090565b828054828255906000526020600020908101928215611d41579160200282015b82811115611d405782518260006101000a81548173ffffffffffffffffffffffffffffffffffffffff021916908373ffffffffffffffffffffffffffffffffffffffff16021790555091602001919060010190611ce8565b5b509050611d4e9190611d52565b5090565b611d9291905b80821115611d8e57600081816101000a81549073ffffffffffffffffffffffffffffffffffffffff021916905550600101611d58565b5090565b905600a165627a7a723058204dd1e6e7569e4eb744a3f2e9966f4fa83af2e6e6a24f217d1ea49eee8f8f02cf0029",
  "source": "pragma solidity ^0.4.24;\r\n\r\nimport \"./SafeMath.sol\";\r\nimport \"./Blacklist.sol\";\r\n\r\ncontract Voting {\r\n    using SafeMath for uint256;\r\n    struct Poll {\r\n        address target;\r\n        bool ban; //true = ban, false = unban\r\n        uint256 startTime;\r\n        uint256 endTime;\r\n        address[] joinedAdresses;\r\n        bool result;\r\n        bool ended;\r\n    }\r\n\r\n    Blacklist public blacklistContract;\r\n    \r\n    mapping(address => bool) public isTarget;\r\n    mapping(address => mapping (uint256 => bool)) public votesByAddress;\r\n    mapping(address => mapping (uint256 => bool)) public joinedByAddress;\r\n    //mapping(address => bool) banned;\r\n    \r\n    Poll[] public polls;\r\n    \r\n    event PollCreatedSuccess(address _from, address _target);\r\n    event VoteSuccess(address _from, uint256 _id);\r\n    \r\n    modifier onlyGoodMan() {\r\n        require(!blacklistContract.inBlacklist(msg.sender) && !isTarget[msg.sender], \"banned or is target of a poll\");\r\n        _;\r\n    }\r\n    \r\n//////////////////////////////////////////////////////////////////\r\n   \r\n    constructor (address _blacklistAddress) public{\r\n        blacklistContract = Blacklist(_blacklistAddress);\r\n    }\r\n    \r\n    function pollCreate(address _target, bool _ban, uint256 _startTime, uint256 _endTime) public {\r\n        require(!isTarget[_target], \"is target of a poll\");\r\n        require(blacklistContract.inBlacklist(_target) != _ban, \"already banned or unbanned\");\r\n        isTarget[_target] = true;\r\n        Poll memory _poll;\r\n        _poll.target = _target;\r\n        _poll.ban = _ban;\r\n        _poll.startTime = _startTime;\r\n        _poll.endTime = _endTime;\r\n        polls.push(_poll);\r\n        emit PollCreatedSuccess(msg.sender, _target);\r\n    }\r\n    \r\n    function vote(uint256 id, bool agree) public onlyGoodMan {\r\n        require(id < polls.length, \"id not exist\");\r\n        Poll memory poll = polls[id];\r\n        require(now >= poll.startTime && now <= poll.endTime, \" not during voting time\");\r\n        \r\n        if (!joinedByAddress[msg.sender][id]) {\r\n            joinedByAddress[msg.sender][id] = true;\r\n            polls[id].joinedAdresses.push(msg.sender);\r\n        }\r\n        \r\n        votesByAddress[msg.sender][id] = agree;\r\n        emit VoteSuccess(msg.sender, id);\r\n    }\r\n    \r\n    function isSubjectApproved(uint256 yesCounter, uint256 noCounter) internal pure returns(bool) {\r\n        return yesCounter > noCounter;\r\n    }\r\n    \r\n    function getPollResult(uint256 id) private view returns(bool) {\r\n        require(id < polls.length, \"id not exist\");\r\n        Poll memory poll = polls[id];\r\n        uint256 yesCounter = 0;\r\n        uint256 noCounter = 0;\r\n        for (uint256 i = 0; i < poll.joinedAdresses.length; i++ ) {\r\n            address _address = poll.joinedAdresses[i];\r\n            bool voteValue = votesByAddress[_address][id];\r\n            if (voteValue) yesCounter = yesCounter.add(_address.balance); else \r\n            noCounter = noCounter.add(_address.balance);\r\n        }\r\n        return isSubjectApproved(yesCounter, noCounter);\r\n    }\r\n    \r\n    function pollEnforce(uint256 id) private {\r\n        require(id < polls.length, \"id not exist\");\r\n        Poll memory poll = polls[id];\r\n        //vote to ban\r\n        if (poll.ban)\r\n        blacklistContract.addAddressToBlacklist(poll.target); else \r\n        //vote to unban\r\n        blacklistContract.removeAddressFromBlacklist(poll.target);\r\n    }\r\n    \r\n    function tryToFinalize(uint256 id) public returns(bool) {\r\n        require(id < polls.length, \"id not exist\");\r\n        Poll memory poll = polls[id];\r\n        if ((now < poll.endTime) || (poll.ended)) {\r\n            return false;\r\n        }\r\n        poll.result = getPollResult(id);\r\n        delete poll.joinedAdresses;\r\n        if (poll.result) pollEnforce(id);\r\n        poll.ended = true;\r\n        isTarget[poll.target] = false;\r\n        return true;\r\n    }\r\n    \r\n    function testAddWithCall(address _address) public {\r\n        blacklistContract.addAddressToBlacklist(_address);\r\n    }\r\n    \r\n    function testRemoveWithCall(address _address) public {\r\n        blacklistContract.removeAddressFromBlacklist(_address);\r\n    }\r\n}",
  "sourcePath": "C:\\Users\\bestb\\Desktop\\Dapps\\nexty\\dapp-voting\\contracts\\Voting.sol",
  "compiler": {
    "name": "solc",
    "version": "0.4.24+commit.e67f0147.Emscripten.clang"
  },
  "schemaVersion": "2.0.1",
  "updatedAt": "2018-08-27T07:12:06.271Z"
}