{
  "contractName": "Voting",
  "abi": [
    {
      "constant": true,
      "inputs": [
        {
          "name": "",
          "type": "address"
        },
        {
          "name": "",
          "type": "uint256"
        }
      ],
      "name": "joinedByAddress",
      "outputs": [
        {
          "name": "",
          "type": "bool"
        }
      ],
      "payable": false,
      "stateMutability": "view",
      "type": "function"
    },
    {
      "constant": true,
      "inputs": [],
      "name": "ONEDAY",
      "outputs": [
        {
          "name": "",
          "type": "uint256"
        }
      ],
      "payable": false,
      "stateMutability": "view",
      "type": "function"
    },
    {
      "constant": true,
      "inputs": [
        {
          "name": "",
          "type": "address"
        }
      ],
      "name": "isTarget",
      "outputs": [
        {
          "name": "",
          "type": "bool"
        }
      ],
      "payable": false,
      "stateMutability": "view",
      "type": "function"
    },
    {
      "constant": true,
      "inputs": [
        {
          "name": "",
          "type": "uint256"
        }
      ],
      "name": "polls",
      "outputs": [
        {
          "name": "target",
          "type": "address"
        },
        {
          "name": "ban",
          "type": "bool"
        },
        {
          "name": "startTime",
          "type": "uint256"
        },
        {
          "name": "endTime",
          "type": "uint256"
        },
        {
          "name": "result",
          "type": "bool"
        },
        {
          "name": "ended",
          "type": "bool"
        }
      ],
      "payable": false,
      "stateMutability": "view",
      "type": "function"
    },
    {
      "constant": true,
      "inputs": [
        {
          "name": "",
          "type": "address"
        },
        {
          "name": "",
          "type": "uint256"
        }
      ],
      "name": "votesByAddress",
      "outputs": [
        {
          "name": "",
          "type": "bool"
        }
      ],
      "payable": false,
      "stateMutability": "view",
      "type": "function"
    },
    {
      "constant": true,
      "inputs": [],
      "name": "blacklistContract",
      "outputs": [
        {
          "name": "",
          "type": "address"
        }
      ],
      "payable": false,
      "stateMutability": "view",
      "type": "function"
    },
    {
      "inputs": [
        {
          "name": "_blacklistAddress",
          "type": "address"
        }
      ],
      "payable": false,
      "stateMutability": "nonpayable",
      "type": "constructor"
    },
    {
      "anonymous": false,
      "inputs": [
        {
          "indexed": false,
          "name": "_from",
          "type": "address"
        },
        {
          "indexed": false,
          "name": "_target",
          "type": "address"
        }
      ],
      "name": "PollCreatedSuccess",
      "type": "event"
    },
    {
      "anonymous": false,
      "inputs": [
        {
          "indexed": false,
          "name": "_from",
          "type": "address"
        },
        {
          "indexed": false,
          "name": "_id",
          "type": "uint256"
        }
      ],
      "name": "VoteSuccess",
      "type": "event"
    },
    {
      "constant": false,
      "inputs": [
        {
          "name": "_target",
          "type": "address"
        },
        {
          "name": "_ban",
          "type": "bool"
        },
        {
          "name": "_startTime",
          "type": "uint256"
        },
        {
          "name": "_endTime",
          "type": "uint256"
        }
      ],
      "name": "pollCreate",
      "outputs": [],
      "payable": false,
      "stateMutability": "nonpayable",
      "type": "function"
    },
    {
      "constant": false,
      "inputs": [
        {
          "name": "_target",
          "type": "address"
        },
        {
          "name": "_ban",
          "type": "bool"
        },
        {
          "name": "_duration",
          "type": "uint256"
        }
      ],
      "name": "pollCreateByDuration",
      "outputs": [],
      "payable": false,
      "stateMutability": "nonpayable",
      "type": "function"
    },
    {
      "constant": false,
      "inputs": [
        {
          "name": "id",
          "type": "uint256"
        },
        {
          "name": "agree",
          "type": "bool"
        }
      ],
      "name": "vote",
      "outputs": [],
      "payable": false,
      "stateMutability": "nonpayable",
      "type": "function"
    },
    {
      "constant": false,
      "inputs": [
        {
          "name": "id",
          "type": "uint256"
        }
      ],
      "name": "tryToFinalize",
      "outputs": [
        {
          "name": "",
          "type": "bool"
        }
      ],
      "payable": false,
      "stateMutability": "nonpayable",
      "type": "function"
    },
    {
      "constant": true,
      "inputs": [
        {
          "name": "_address",
          "type": "address"
        }
      ],
      "name": "isTargetByAddress",
      "outputs": [
        {
          "name": "",
          "type": "bool"
        }
      ],
      "payable": false,
      "stateMutability": "view",
      "type": "function"
    },
    {
      "constant": true,
      "inputs": [],
      "name": "getPollsLength",
      "outputs": [
        {
          "name": "",
          "type": "uint256"
        }
      ],
      "payable": false,
      "stateMutability": "view",
      "type": "function"
    },
    {
      "constant": true,
      "inputs": [
        {
          "name": "id",
          "type": "uint256"
        }
      ],
      "name": "getPollById",
      "outputs": [
        {
          "name": "",
          "type": "address"
        },
        {
          "name": "",
          "type": "bool"
        },
        {
          "name": "",
          "type": "uint256"
        },
        {
          "name": "",
          "type": "uint256"
        },
        {
          "name": "",
          "type": "bool"
        },
        {
          "name": "",
          "type": "bool"
        }
      ],
      "payable": false,
      "stateMutability": "view",
      "type": "function"
    },
    {
      "constant": true,
      "inputs": [
        {
          "name": "_address",
          "type": "address"
        },
        {
          "name": "_id",
          "type": "uint256"
        }
      ],
      "name": "getJoinedByAddress",
      "outputs": [
        {
          "name": "",
          "type": "bool"
        }
      ],
      "payable": false,
      "stateMutability": "view",
      "type": "function"
    },
    {
      "constant": true,
      "inputs": [
        {
          "name": "_address",
          "type": "address"
        },
        {
          "name": "_id",
          "type": "uint256"
        }
      ],
      "name": "getVotesByAddress",
      "outputs": [
        {
          "name": "",
          "type": "bool"
        }
      ],
      "payable": false,
      "stateMutability": "view",
      "type": "function"
    },
    {
      "constant": false,
      "inputs": [
        {
          "name": "_address",
          "type": "address"
        }
      ],
      "name": "testAddWithCall",
      "outputs": [],
      "payable": false,
      "stateMutability": "nonpayable",
      "type": "function"
    },
    {
      "constant": false,
      "inputs": [
        {
          "name": "_address",
          "type": "address"
        }
      ],
      "name": "testRemoveWithCall",
      "outputs": [],
      "payable": false,
      "stateMutability": "nonpayable",
      "type": "function"
    }
  ],
  "bytecode": "0x608060405234801561001057600080fd5b506040516020806125af83398101806040528101908080519060200190929190505050806000806101000a81548173ffffffffffffffffffffffffffffffffffffffff021916908373ffffffffffffffffffffffffffffffffffffffff1602179055505061252c806100836000396000f3006080604052600436106100f1576000357c0100000000000000000000000000000000000000000000000000000000900463ffffffff1680631403bba9146100f657806328b1f2471461015957806331207280146101be578063718dceb91461020157806384a192341461022c5780638ff7ba991461026f578063a79a7b63146102d4578063aa64227414610339578063ac2f007414610394578063c7f07b6c14610430578063c9d27afe14610489578063d23339bf146104c2578063d4bc5e911461051d578063d4f0ca1f146105b9578063db7c01e2146105e4578063f3e1a4df14610649578063fdb7f3e0146106a0575b600080fd5b34801561010257600080fd5b50610157600480360381019080803573ffffffffffffffffffffffffffffffffffffffff16906020019092919080351515906020019092919080359060200190929190803590602001909291905050506106e5565b005b34801561016557600080fd5b506101a4600480360381019080803573ffffffffffffffffffffffffffffffffffffffff16906020019092919080359060200190929190505050610b7a565b604051808215151515815260200191505060405180910390f35b3480156101ca57600080fd5b506101ff600480360381019080803573ffffffffffffffffffffffffffffffffffffffff169060200190929190505050610ba9565b005b34801561020d57600080fd5b50610216610ca4565b6040518082815260200191505060405180910390f35b34801561023857600080fd5b5061026d600480360381019080803573ffffffffffffffffffffffffffffffffffffffff169060200190929190505050610ca9565b005b34801561027b57600080fd5b506102ba600480360381019080803573ffffffffffffffffffffffffffffffffffffffff16906020019092919080359060200190929190505050610da4565b604051808215151515815260200191505060405180910390f35b3480156102e057600080fd5b5061031f600480360381019080803573ffffffffffffffffffffffffffffffffffffffff16906020019092919080359060200190929190505050610e0c565b604051808215151515815260200191505060405180910390f35b34801561034557600080fd5b5061037a600480360381019080803573ffffffffffffffffffffffffffffffffffffffff169060200190929190505050610e74565b604051808215151515815260200191505060405180910390f35b3480156103a057600080fd5b506103bf60048036038101908080359060200190929190505050610e94565b604051808773ffffffffffffffffffffffffffffffffffffffff1673ffffffffffffffffffffffffffffffffffffffff168152602001861515151581526020018581526020018481526020018315151515815260200182151515158152602001965050505050505060405180910390f35b34801561043c57600080fd5b50610487600480360381019080803573ffffffffffffffffffffffffffffffffffffffff16906020019092919080351515906020019092919080359060200190929190505050610f26565b005b34801561049557600080fd5b506104c06004803603810190808035906020019092919080351515906020019092919050505061118a565b005b3480156104ce57600080fd5b50610503600480360381019080803573ffffffffffffffffffffffffffffffffffffffff169060200190929190505050611638565b604051808215151515815260200191505060405180910390f35b34801561052957600080fd5b506105486004803603810190808035906020019092919050505061168e565b604051808773ffffffffffffffffffffffffffffffffffffffff1673ffffffffffffffffffffffffffffffffffffffff168152602001861515151581526020018581526020018481526020018315151515815260200182151515158152602001965050505050505060405180910390f35b3480156105c557600080fd5b506105ce611847565b6040518082815260200191505060405180910390f35b3480156105f057600080fd5b5061062f600480360381019080803573ffffffffffffffffffffffffffffffffffffffff16906020019092919080359060200190929190505050611854565b604051808215151515815260200191505060405180910390f35b34801561065557600080fd5b5061065e611883565b604051808273ffffffffffffffffffffffffffffffffffffffff1673ffffffffffffffffffffffffffffffffffffffff16815260200191505060405180910390f35b3480156106ac57600080fd5b506106cb600480360381019080803590602001909291905050506118a8565b604051808215151515815260200191505060405180910390f35b6106ed612393565b600160008673ffffffffffffffffffffffffffffffffffffffff1673ffffffffffffffffffffffffffffffffffffffff16815260200190815260200160002060009054906101000a900460ff161515156107af576040517f08c379a00000000000000000000000000000000000000000000000000000000081526004018080602001828103825260138152602001807f697320746172676574206f66206120706f6c6c0000000000000000000000000081525060200191505060405180910390fd5b8315156000809054906101000a900473ffffffffffffffffffffffffffffffffffffffff1673ffffffffffffffffffffffffffffffffffffffff166286786e876040518263ffffffff167c0100000000000000000000000000000000000000000000000000000000028152600401808273ffffffffffffffffffffffffffffffffffffffff1673ffffffffffffffffffffffffffffffffffffffff168152602001915050602060405180830381600087803b15801561086d57600080fd5b505af1158015610881573d6000803e3d6000fd5b505050506040513d602081101561089757600080fd5b8101908080519060200190929190505050151514151515610920576040517f08c379a000000000000000000000000000000000000000000000000000000000815260040180806020018281038252601a8152602001807f616c72656164792062616e6e6564206f7220756e62616e6e656400000000000081525060200191505060405180910390fd5b60018060008773ffffffffffffffffffffffffffffffffffffffff1673ffffffffffffffffffffffffffffffffffffffff16815260200190815260200160002060006101000a81548160ff02191690831515021790555084816000019073ffffffffffffffffffffffffffffffffffffffff16908173ffffffffffffffffffffffffffffffffffffffff16815250508381602001901515908115158152505082816040018181525050818160600181815250506004819080600181540180825580915050906001820390600052602060002090600502016000909192909190915060008201518160000160006101000a81548173ffffffffffffffffffffffffffffffffffffffff021916908373ffffffffffffffffffffffffffffffffffffffff16021790555060208201518160000160146101000a81548160ff02191690831515021790555060408201518160010155606082015181600201556080820151816003019080519060200190610a989291906123ed565b5060a08201518160040160006101000a81548160ff02191690831515021790555060c08201518160040160016101000a81548160ff0219169083151502179055505050507fc6fcad5acef6cf9f9722432ecb0ff3763242a7b82f8627a5e4df9835f4fefe3c3386604051808373ffffffffffffffffffffffffffffffffffffffff1673ffffffffffffffffffffffffffffffffffffffff1681526020018273ffffffffffffffffffffffffffffffffffffffff1673ffffffffffffffffffffffffffffffffffffffff1681526020019250505060405180910390a15050505050565b60036020528160005260406000206020528060005260406000206000915091509054906101000a900460ff1681565b6000809054906101000a900473ffffffffffffffffffffffffffffffffffffffff1673ffffffffffffffffffffffffffffffffffffffff166335e82f3a826040518263ffffffff167c0100000000000000000000000000000000000000000000000000000000028152600401808273ffffffffffffffffffffffffffffffffffffffff1673ffffffffffffffffffffffffffffffffffffffff168152602001915050602060405180830381600087803b158015610c6557600080fd5b505af1158015610c79573d6000803e3d6000fd5b505050506040513d6020811015610c8f57600080fd5b81019080805190602001909291905050505050565b600281565b6000809054906101000a900473ffffffffffffffffffffffffffffffffffffffff1673ffffffffffffffffffffffffffffffffffffffff1663f2c816ae826040518263ffffffff167c0100000000000000000000000000000000000000000000000000000000028152600401808273ffffffffffffffffffffffffffffffffffffffff1673ffffffffffffffffffffffffffffffffffffffff168152602001915050602060405180830381600087803b158015610d6557600080fd5b505af1158015610d79573d6000803e3d6000fd5b505050506040513d6020811015610d8f57600080fd5b81019080805190602001909291905050505050565b6000600260008473ffffffffffffffffffffffffffffffffffffffff1673ffffffffffffffffffffffffffffffffffffffff168152602001908152602001600020600083815260200190815260200160002060009054906101000a900460ff16905092915050565b6000600360008473ffffffffffffffffffffffffffffffffffffffff1673ffffffffffffffffffffffffffffffffffffffff168152602001908152602001600020600083815260200190815260200160002060009054906101000a900460ff16905092915050565b60016020528060005260406000206000915054906101000a900460ff1681565b600481815481101515610ea357fe5b90600052602060002090600502016000915090508060000160009054906101000a900473ffffffffffffffffffffffffffffffffffffffff16908060000160149054906101000a900460ff16908060010154908060020154908060040160009054906101000a900460ff16908060040160019054906101000a900460ff16905086565b600080600160008673ffffffffffffffffffffffffffffffffffffffff1673ffffffffffffffffffffffffffffffffffffffff16815260200190815260200160002060009054906101000a900460ff16151515610feb576040517f08c379a00000000000000000000000000000000000000000000000000000000081526004018080602001828103825260138152602001807f697320746172676574206f66206120706f6c6c0000000000000000000000000081525060200191505060405180910390fd5b8315156000809054906101000a900473ffffffffffffffffffffffffffffffffffffffff1673ffffffffffffffffffffffffffffffffffffffff166286786e876040518263ffffffff167c0100000000000000000000000000000000000000000000000000000000028152600401808273ffffffffffffffffffffffffffffffffffffffff1673ffffffffffffffffffffffffffffffffffffffff168152602001915050602060405180830381600087803b1580156110a957600080fd5b505af11580156110bd573d6000803e3d6000fd5b505050506040513d60208110156110d357600080fd5b810190808051906020019092919050505015151415151561115c576040517f08c379a000000000000000000000000000000000000000000000000000000000815260040180806020018281038252601a8152602001807f616c72656164792062616e6e6564206f7220756e62616e6e656400000000000081525060200191505060405180910390fd5b429150611173600284611c0c90919063ffffffff16565b42019050611183858584846106e5565b5050505050565b611192612393565b6004805490508310151561120e576040517f08c379a000000000000000000000000000000000000000000000000000000000815260040180806020018281038252600c8152602001807f6964206e6f74206578697374000000000000000000000000000000000000000081525060200191505060405180910390fd5b60048381548110151561121d57fe5b906000526020600020906005020160e060405190810160405290816000820160009054906101000a900473ffffffffffffffffffffffffffffffffffffffff1673ffffffffffffffffffffffffffffffffffffffff1673ffffffffffffffffffffffffffffffffffffffff1681526020016000820160149054906101000a900460ff1615151515815260200160018201548152602001600282015481526020016003820180548060200260200160405190810160405280929190818152602001828054801561134157602002820191906000526020600020905b8160009054906101000a900473ffffffffffffffffffffffffffffffffffffffff1673ffffffffffffffffffffffffffffffffffffffff16815260200190600101908083116112f7575b505050505081526020016004820160009054906101000a900460ff161515151581526020016004820160019054906101000a900460ff16151515158152505090508060400151421015801561139a575080606001514211155b151561140e576040517f08c379a00000000000000000000000000000000000000000000000000000000081526004018080602001828103825260178152602001807f206e6f7420647572696e6720766f74696e672074696d6500000000000000000081525060200191505060405180910390fd5b600360003373ffffffffffffffffffffffffffffffffffffffff1673ffffffffffffffffffffffffffffffffffffffff168152602001908152602001600020600084815260200190815260200160002060009054906101000a900460ff161515611560576001600360003373ffffffffffffffffffffffffffffffffffffffff1673ffffffffffffffffffffffffffffffffffffffff168152602001908152602001600020600085815260200190815260200160002060006101000a81548160ff0219169083151502179055506004838154811015156114ea57fe5b90600052602060002090600502016003013390806001815401808255809150509060018203906000526020600020016000909192909190916101000a81548173ffffffffffffffffffffffffffffffffffffffff021916908373ffffffffffffffffffffffffffffffffffffffff160217905550505b81600260003373ffffffffffffffffffffffffffffffffffffffff1673ffffffffffffffffffffffffffffffffffffffff168152602001908152602001600020600085815260200190815260200160002060006101000a81548160ff0219169083151502179055507f3a232d0b41363ece538fec6c001a49e4d237d8806c40d2899dc7590e1b2dfd1d3384604051808373ffffffffffffffffffffffffffffffffffffffff1673ffffffffffffffffffffffffffffffffffffffff1681526020018281526020019250505060405180910390a1505050565b6000600160008373ffffffffffffffffffffffffffffffffffffffff1673ffffffffffffffffffffffffffffffffffffffff16815260200190815260200160002060009054906101000a900460ff169050919050565b60008060008060008061169f612393565b6004888154811015156116ae57fe5b906000526020600020906005020160e060405190810160405290816000820160009054906101000a900473ffffffffffffffffffffffffffffffffffffffff1673ffffffffffffffffffffffffffffffffffffffff1673ffffffffffffffffffffffffffffffffffffffff1681526020016000820160149054906101000a900460ff161515151581526020016001820154815260200160028201548152602001600382018054806020026020016040519081016040528092919081815260200182805480156117d257602002820191906000526020600020905b8160009054906101000a900473ffffffffffffffffffffffffffffffffffffffff1673ffffffffffffffffffffffffffffffffffffffff1681526020019060010190808311611788575b505050505081526020016004820160009054906101000a900460ff161515151581526020016004820160019054906101000a900460ff161515151581525050905080600001518160200151826040015183606001518460a001518560c001519650965096509650965096505091939550919395565b6000600480549050905090565b60026020528160005260406000206020528060005260406000206000915091509054906101000a900460ff1681565b6000809054906101000a900473ffffffffffffffffffffffffffffffffffffffff1681565b60006118b2612393565b6004805490508310151561192e576040517f08c379a000000000000000000000000000000000000000000000000000000000815260040180806020018281038252600c8152602001807f6964206e6f74206578697374000000000000000000000000000000000000000081525060200191505060405180910390fd5b60048381548110151561193d57fe5b906000526020600020906005020160e060405190810160405290816000820160009054906101000a900473ffffffffffffffffffffffffffffffffffffffff1673ffffffffffffffffffffffffffffffffffffffff1673ffffffffffffffffffffffffffffffffffffffff1681526020016000820160149054906101000a900460ff16151515158152602001600182015481526020016002820154815260200160038201805480602002602001604051908101604052809291908181526020018280548015611a6157602002820191906000526020600020905b8160009054906101000a900473ffffffffffffffffffffffffffffffffffffffff1673ffffffffffffffffffffffffffffffffffffffff1681526020019060010190808311611a17575b505050505081526020016004820160009054906101000a900460ff161515151581526020016004820160019054906101000a900460ff16151515158152505090508060600151421080611ab557508060c001515b15611ac35760009150611c06565b611acc83611c44565b600484815481101515611adb57fe5b906000526020600020906005020160040160006101000a81548160ff021916908315150217905550600483815481101515611b1257fe5b90600052602060002090600502016003016000611b2f9190612477565b600483815481101515611b3e57fe5b906000526020600020906005020160040160009054906101000a900460ff1615611b6c57611b6b83611f66565b5b6001600484815481101515611b7d57fe5b906000526020600020906005020160040160016101000a81548160ff021916908315150217905550600060016000836000015173ffffffffffffffffffffffffffffffffffffffff1673ffffffffffffffffffffffffffffffffffffffff16815260200190815260200160002060006101000a81548160ff021916908315150217905550600191505b50919050565b600080831415611c1f5760009050611c3e565b8183029050818382811515611c3057fe5b04141515611c3a57fe5b8090505b92915050565b6000611c4e612393565b600080600080600060048054905088101515611cd2576040517f08c379a000000000000000000000000000000000000000000000000000000000815260040180806020018281038252600c8152602001807f6964206e6f74206578697374000000000000000000000000000000000000000081525060200191505060405180910390fd5b600488815481101515611ce157fe5b906000526020600020906005020160e060405190810160405290816000820160009054906101000a900473ffffffffffffffffffffffffffffffffffffffff1673ffffffffffffffffffffffffffffffffffffffff1673ffffffffffffffffffffffffffffffffffffffff1681526020016000820160149054906101000a900460ff16151515158152602001600182015481526020016002820154815260200160038201805480602002602001604051908101604052809291908181526020018280548015611e0557602002820191906000526020600020905b8160009054906101000a900473ffffffffffffffffffffffffffffffffffffffff1673ffffffffffffffffffffffffffffffffffffffff1681526020019060010190808311611dbb575b505050505081526020016004820160009054906101000a900460ff161515151581526020016004820160019054906101000a900460ff16151515158152505095506000945060009350600092505b856080015151831015611f4f57856080015183815181101515611e7257fe5b906020019060200201519150600260008373ffffffffffffffffffffffffffffffffffffffff1673ffffffffffffffffffffffffffffffffffffffff168152602001908152602001600020600089815260200190815260200160002060009054906101000a900460ff1690508015611f1557611f0e8273ffffffffffffffffffffffffffffffffffffffff16318661236a90919063ffffffff16565b9450611f42565b611f3f8273ffffffffffffffffffffffffffffffffffffffff16318561236a90919063ffffffff16565b93505b8280600101935050611e53565b611f598585612386565b9650505050505050919050565b611f6e612393565b60048054905082101515611fea576040517f08c379a000000000000000000000000000000000000000000000000000000000815260040180806020018281038252600c8152602001807f6964206e6f74206578697374000000000000000000000000000000000000000081525060200191505060405180910390fd5b600482815481101515611ff957fe5b906000526020600020906005020160e060405190810160405290816000820160009054906101000a900473ffffffffffffffffffffffffffffffffffffffff1673ffffffffffffffffffffffffffffffffffffffff1673ffffffffffffffffffffffffffffffffffffffff1681526020016000820160149054906101000a900460ff1615151515815260200160018201548152602001600282015481526020016003820180548060200260200160405190810160405280929190818152602001828054801561211d57602002820191906000526020600020905b8160009054906101000a900473ffffffffffffffffffffffffffffffffffffffff1673ffffffffffffffffffffffffffffffffffffffff16815260200190600101908083116120d3575b505050505081526020016004820160009054906101000a900460ff161515151581526020016004820160019054906101000a900460ff1615151515815250509050806020015115612269576000809054906101000a900473ffffffffffffffffffffffffffffffffffffffff1673ffffffffffffffffffffffffffffffffffffffff1663f2c816ae82600001516040518263ffffffff167c0100000000000000000000000000000000000000000000000000000000028152600401808273ffffffffffffffffffffffffffffffffffffffff1673ffffffffffffffffffffffffffffffffffffffff168152602001915050602060405180830381600087803b15801561222857600080fd5b505af115801561223c573d6000803e3d6000fd5b505050506040513d602081101561225257600080fd5b810190808051906020019092919050505050612366565b6000809054906101000a900473ffffffffffffffffffffffffffffffffffffffff1673ffffffffffffffffffffffffffffffffffffffff166335e82f3a82600001516040518263ffffffff167c0100000000000000000000000000000000000000000000000000000000028152600401808273ffffffffffffffffffffffffffffffffffffffff1673ffffffffffffffffffffffffffffffffffffffff168152602001915050602060405180830381600087803b15801561232957600080fd5b505af115801561233d573d6000803e3d6000fd5b505050506040513d602081101561235357600080fd5b8101908080519060200190929190505050505b5050565b6000818301905082811015151561237d57fe5b80905092915050565b6000818311905092915050565b60e060405190810160405280600073ffffffffffffffffffffffffffffffffffffffff1681526020016000151581526020016000815260200160008152602001606081526020016000151581526020016000151581525090565b828054828255906000526020600020908101928215612466579160200282015b828111156124655782518260006101000a81548173ffffffffffffffffffffffffffffffffffffffff021916908373ffffffffffffffffffffffffffffffffffffffff1602179055509160200191906001019061240d565b5b5090506124739190612498565b5090565b508054600082559060005260206000209081019061249591906124db565b50565b6124d891905b808211156124d457600081816101000a81549073ffffffffffffffffffffffffffffffffffffffff02191690555060010161249e565b5090565b90565b6124fd91905b808211156124f95760008160009055506001016124e1565b5090565b905600a165627a7a72305820f8b66351dbddb405fc64e1cec2a5a659892ccc80d3567c65856410ce6dda26a80029",
  "source": "pragma solidity ^0.4.24;\r\n\r\nimport \"./SafeMath.sol\";\r\nimport \"./Blacklist.sol\";\r\n\r\ncontract Voting {\r\n    using SafeMath for uint256;\r\n    struct Poll {\r\n        address target;\r\n        bool ban; //true = ban, false = unban\r\n        uint256 startTime;\r\n        uint256 endTime;\r\n        address[] joinedAdresses;\r\n        bool result;\r\n        bool ended;\r\n    }\r\n\r\n    //uint256 constant public ONEDAY = 24 * 60 * 60;\r\n    uint256 constant public ONEDAY = 2;\r\n\r\n    Blacklist public blacklistContract;\r\n    \r\n    mapping(address => bool) public isTarget;\r\n    mapping(address => mapping (uint256 => bool)) public votesByAddress;\r\n    mapping(address => mapping (uint256 => bool)) public joinedByAddress;\r\n    //mapping(address => bool) banned;\r\n    \r\n    Poll[] public polls;\r\n    \r\n    event PollCreatedSuccess(address _from, address _target);\r\n    event VoteSuccess(address _from, uint256 _id);\r\n    \r\n    modifier onlyGoodMan() {\r\n        require(!blacklistContract.inBlacklist(msg.sender) && !isTarget[msg.sender], \"banned or is target of a poll\");\r\n        _;\r\n    }\r\n    \r\n//////////////////////////////////////////////////////////////////\r\n   \r\n    constructor (address _blacklistAddress) public{\r\n        blacklistContract = Blacklist(_blacklistAddress);\r\n    }\r\n    \r\n    function pollCreate(address _target, bool _ban, uint256 _startTime, uint256 _endTime) public {\r\n        require(!isTarget[_target], \"is target of a poll\");\r\n        require(blacklistContract.inBlacklist(_target) != _ban, \"already banned or unbanned\");\r\n        isTarget[_target] = true;\r\n        Poll memory _poll;\r\n        _poll.target = _target;\r\n        _poll.ban = _ban;\r\n        _poll.startTime = _startTime;\r\n        _poll.endTime = _endTime;\r\n        polls.push(_poll);\r\n        emit PollCreatedSuccess(msg.sender, _target);\r\n    }\r\n\r\n    function pollCreateByDuration(address _target, bool _ban, uint256 _duration) public {\r\n        require(!isTarget[_target], \"is target of a poll\");\r\n        require(blacklistContract.inBlacklist(_target) != _ban, \"already banned or unbanned\");\r\n        uint256 startTime = now;\r\n        uint256 endTime = now + _duration.mul(ONEDAY);\r\n        pollCreate(_target, _ban, startTime, endTime);\r\n    }\r\n    \r\n    function vote(uint256 id, bool agree) public {\r\n        require(id < polls.length, \"id not exist\");\r\n        Poll memory poll = polls[id];\r\n        require(now >= poll.startTime && now <= poll.endTime, \" not during voting time\");\r\n        \r\n        if (!joinedByAddress[msg.sender][id]) {\r\n            joinedByAddress[msg.sender][id] = true;\r\n            polls[id].joinedAdresses.push(msg.sender);\r\n        }\r\n        \r\n        votesByAddress[msg.sender][id] = agree;\r\n        emit VoteSuccess(msg.sender, id);\r\n    }\r\n    \r\n    function isSubjectApproved(uint256 yesCounter, uint256 noCounter) internal pure returns(bool) {\r\n        return yesCounter > noCounter;\r\n    }\r\n\r\n    function getPollResult(uint256 id) private view returns(bool) {\r\n        require(id < polls.length, \"id not exist\");\r\n        Poll memory poll = polls[id];\r\n        uint256 yesCounter = 0;\r\n        uint256 noCounter = 0;\r\n        for (uint256 i = 0; i < poll.joinedAdresses.length; i++ ) {\r\n            address _address = poll.joinedAdresses[i];\r\n            bool voteValue = votesByAddress[_address][id];\r\n            if (voteValue) yesCounter = yesCounter.add(_address.balance); else \r\n            noCounter = noCounter.add(_address.balance);\r\n        }\r\n        return isSubjectApproved(yesCounter, noCounter);\r\n    }\r\n    \r\n    function pollEnforce(uint256 id) private {\r\n        require(id < polls.length, \"id not exist\");\r\n        Poll memory poll = polls[id];\r\n        //vote to ban\r\n        if (poll.ban)\r\n        blacklistContract.addAddressToBlacklist(poll.target); else \r\n        //vote to unban\r\n        blacklistContract.removeAddressFromBlacklist(poll.target);\r\n    }\r\n    \r\n    function tryToFinalize(uint256 id) public returns(bool) {\r\n        require(id < polls.length, \"id not exist\");\r\n        Poll memory poll = polls[id];\r\n        if ((now < poll.endTime) || (poll.ended)) {\r\n            return false;\r\n        }\r\n        polls[id].result = getPollResult(id);\r\n        delete polls[id].joinedAdresses;\r\n        if (polls[id].result) pollEnforce(id);\r\n        polls[id].ended = true;\r\n        isTarget[poll.target] = false;\r\n        return true;\r\n    }\r\n\r\n    function isTargetByAddress(address _address) public view returns(bool){\r\n        return isTarget[_address];\r\n    }\r\n\r\n    function getPollsLength() public view returns(uint256) { \r\n        return polls.length;\r\n    }\r\n\r\n    function getPollById(uint256 id) public view returns(address, bool, uint256, uint256, bool, bool) {\r\n        Poll memory poll = polls[id];\r\n        return (poll.target, poll.ban, poll.startTime, poll.endTime, poll.result, poll.ended);\r\n    }\r\n\r\n    function getJoinedByAddress(address _address, uint256 _id) public view returns(bool) {\r\n        return joinedByAddress[_address][_id];\r\n    }\r\n\r\n    function getVotesByAddress(address _address, uint256 _id) public view  returns(bool) {\r\n        return votesByAddress[_address][_id];\r\n    }\r\n    \r\n    function testAddWithCall(address _address) public {\r\n        blacklistContract.addAddressToBlacklist(_address);\r\n    }\r\n    \r\n    function testRemoveWithCall(address _address) public {\r\n        blacklistContract.removeAddressFromBlacklist(_address);\r\n    }\r\n}",
  "sourcePath": "C:\\Users\\bestb\\Desktop\\Dapps\\nexty\\dapp-voting\\contracts\\Voting.sol",
  "compiler": {
    "name": "solc",
    "version": "0.4.24+commit.e67f0147.Emscripten.clang"
  },
  "schemaVersion": "2.0.1",
  "updatedAt": "2018-08-29T02:30:50.427Z"
}